{
  "contractName": "DBZCollectible",
  "abi": [
    {
      "constant": true,
      "inputs": [
        {
          "name": "interfaceId",
          "type": "bytes4"
        }
      ],
      "name": "supportsInterface",
      "outputs": [
        {
          "name": "",
          "type": "bool"
        }
      ],
      "payable": false,
      "stateMutability": "view",
      "type": "function"
    },
    {
      "constant": true,
      "inputs": [],
      "name": "name",
      "outputs": [
        {
          "name": "",
          "type": "string"
        }
      ],
      "payable": false,
      "stateMutability": "view",
      "type": "function"
    },
    {
      "constant": true,
      "inputs": [
        {
          "name": "tokenId",
          "type": "uint256"
        }
      ],
      "name": "getApproved",
      "outputs": [
        {
          "name": "",
          "type": "address"
        }
      ],
      "payable": false,
      "stateMutability": "view",
      "type": "function"
    },
    {
      "constant": false,
      "inputs": [
        {
          "name": "to",
          "type": "address"
        },
        {
          "name": "tokenId",
          "type": "uint256"
        }
      ],
      "name": "approve",
      "outputs": [],
      "payable": false,
      "stateMutability": "nonpayable",
      "type": "function"
    },
    {
      "constant": true,
      "inputs": [],
      "name": "totalSupply",
      "outputs": [
        {
          "name": "",
          "type": "uint256"
        }
      ],
      "payable": false,
      "stateMutability": "view",
      "type": "function"
    },
    {
      "constant": false,
      "inputs": [
        {
          "name": "from",
          "type": "address"
        },
        {
          "name": "to",
          "type": "address"
        },
        {
          "name": "tokenId",
          "type": "uint256"
        }
      ],
      "name": "transferFrom",
      "outputs": [],
      "payable": false,
      "stateMutability": "nonpayable",
      "type": "function"
    },
    {
      "constant": true,
      "inputs": [
        {
          "name": "owner",
          "type": "address"
        },
        {
          "name": "index",
          "type": "uint256"
        }
      ],
      "name": "tokenOfOwnerByIndex",
      "outputs": [
        {
          "name": "",
          "type": "uint256"
        }
      ],
      "payable": false,
      "stateMutability": "view",
      "type": "function"
    },
    {
      "constant": false,
      "inputs": [
        {
          "name": "from",
          "type": "address"
        },
        {
          "name": "to",
          "type": "address"
        },
        {
          "name": "tokenId",
          "type": "uint256"
        }
      ],
      "name": "safeTransferFrom",
      "outputs": [],
      "payable": false,
      "stateMutability": "nonpayable",
      "type": "function"
    },
    {
      "constant": true,
      "inputs": [
        {
          "name": "index",
          "type": "uint256"
        }
      ],
      "name": "tokenByIndex",
      "outputs": [
        {
          "name": "",
          "type": "uint256"
        }
      ],
      "payable": false,
      "stateMutability": "view",
      "type": "function"
    },
    {
      "constant": true,
      "inputs": [
        {
          "name": "tokenId",
          "type": "uint256"
        }
      ],
      "name": "ownerOf",
      "outputs": [
        {
          "name": "",
          "type": "address"
        }
      ],
      "payable": false,
      "stateMutability": "view",
      "type": "function"
    },
    {
      "constant": true,
      "inputs": [],
      "name": "baseURI",
      "outputs": [
        {
          "name": "",
          "type": "string"
        }
      ],
      "payable": false,
      "stateMutability": "view",
      "type": "function"
    },
    {
      "constant": true,
      "inputs": [
        {
          "name": "owner",
          "type": "address"
        }
      ],
      "name": "balanceOf",
      "outputs": [
        {
          "name": "",
          "type": "uint256"
        }
      ],
      "payable": false,
      "stateMutability": "view",
      "type": "function"
    },
    {
      "constant": true,
      "inputs": [
        {
          "name": "",
          "type": "uint256"
        }
      ],
      "name": "cardIndexToOwner",
      "outputs": [
        {
          "name": "",
          "type": "address"
        }
      ],
      "payable": false,
      "stateMutability": "view",
      "type": "function"
    },
    {
      "constant": true,
      "inputs": [
        {
          "name": "",
          "type": "uint256"
        }
      ],
      "name": "cards",
      "outputs": [
        {
          "name": "id",
          "type": "uint256"
        },
        {
          "name": "birthTime",
          "type": "uint64"
        },
        {
          "name": "cardType",
          "type": "string"
        },
        {
          "name": "price",
          "type": "uint256"
        }
      ],
      "payable": false,
      "stateMutability": "view",
      "type": "function"
    },
    {
      "constant": true,
      "inputs": [],
      "name": "symbol",
      "outputs": [
        {
          "name": "",
          "type": "string"
        }
      ],
      "payable": false,
      "stateMutability": "view",
      "type": "function"
    },
    {
      "constant": false,
      "inputs": [
        {
          "name": "to",
          "type": "address"
        },
        {
          "name": "approved",
          "type": "bool"
        }
      ],
      "name": "setApprovalForAll",
      "outputs": [],
      "payable": false,
      "stateMutability": "nonpayable",
      "type": "function"
    },
    {
      "constant": false,
      "inputs": [
        {
          "name": "from",
          "type": "address"
        },
        {
          "name": "to",
          "type": "address"
        },
        {
          "name": "tokenId",
          "type": "uint256"
        },
        {
          "name": "_data",
          "type": "bytes"
        }
      ],
      "name": "safeTransferFrom",
      "outputs": [],
      "payable": false,
      "stateMutability": "nonpayable",
      "type": "function"
    },
    {
      "constant": true,
      "inputs": [
        {
          "name": "tokenId",
          "type": "uint256"
        }
      ],
      "name": "tokenURI",
      "outputs": [
        {
          "name": "",
          "type": "string"
        }
      ],
      "payable": false,
      "stateMutability": "view",
      "type": "function"
    },
    {
      "constant": true,
      "inputs": [
        {
          "name": "owner",
          "type": "address"
        },
        {
          "name": "operator",
          "type": "address"
        }
      ],
      "name": "isApprovedForAll",
      "outputs": [
        {
          "name": "",
          "type": "bool"
        }
      ],
      "payable": false,
      "stateMutability": "view",
      "type": "function"
    },
    {
      "inputs": [],
      "payable": false,
      "stateMutability": "nonpayable",
      "type": "constructor"
    },
    {
      "anonymous": false,
      "inputs": [
        {
          "indexed": false,
          "name": "owner",
          "type": "address"
        },
        {
          "indexed": false,
          "name": "cardID",
          "type": "uint256"
        },
        {
          "indexed": false,
          "name": "cardType",
          "type": "string"
        }
      ],
      "name": "Created",
      "type": "event"
    },
    {
      "anonymous": false,
      "inputs": [
        {
          "indexed": false,
          "name": "from",
          "type": "address"
        },
        {
          "indexed": false,
          "name": "to",
          "type": "address"
        },
        {
          "indexed": false,
          "name": "tokenId",
          "type": "uint256"
        }
      ],
      "name": "Transfer",
      "type": "event"
    },
    {
      "anonymous": false,
      "inputs": [
        {
          "indexed": true,
          "name": "owner",
          "type": "address"
        },
        {
          "indexed": true,
          "name": "approved",
          "type": "address"
        },
        {
          "indexed": true,
          "name": "tokenId",
          "type": "uint256"
        }
      ],
      "name": "Approval",
      "type": "event"
    },
    {
      "anonymous": false,
      "inputs": [
        {
          "indexed": true,
          "name": "owner",
          "type": "address"
        },
        {
          "indexed": true,
          "name": "operator",
          "type": "address"
        },
        {
          "indexed": false,
          "name": "approved",
          "type": "bool"
        }
      ],
      "name": "ApprovalForAll",
      "type": "event"
    },
    {
      "constant": false,
      "inputs": [],
      "name": "getCards",
      "outputs": [
        {
          "components": [
            {
              "name": "id",
              "type": "uint256"
            },
            {
              "name": "birthTime",
              "type": "uint64"
            },
            {
              "name": "cardType",
              "type": "string"
            },
            {
              "name": "price",
              "type": "uint256"
            }
          ],
          "name": "",
          "type": "tuple[]"
        }
      ],
      "payable": false,
      "stateMutability": "nonpayable",
      "type": "function"
    },
    {
      "constant": false,
      "inputs": [
        {
          "name": "cardType",
          "type": "string"
        },
        {
          "name": "_price",
          "type": "uint256"
        }
      ],
      "name": "mint",
      "outputs": [],
      "payable": false,
      "stateMutability": "nonpayable",
      "type": "function"
    }
  ],
  "bytecode": "0x60806040526000600e553480156200001657600080fd5b506040518060400160405280601081526020017f447261676f6e2042616c6c2043617264000000000000000000000000000000008152506040518060400160405280600781526020017f44425a434152440000000000000000000000000000000000000000000000000081525081816200009d6301ffc9a760e01b620001f960201b60201c565b620000b56380ac58cd60e01b620001f960201b60201c565b620000cd63780e9d6360e01b620001f960201b60201c565b8160099080519060200190620000e592919062000978565b5080600a9080519060200190620000fe92919062000978565b5062000117635b5e139f60e01b620001f960201b60201c565b50505050620001636040518060400160405280600d81526020017f676f6b755f73735f6e616d656b000000000000000000000000000000000000008152506001620002d360201b60201c565b620001ab6040518060400160405280600c81526020017f62726f6c795f6462735f737300000000000000000000000000000000000000008152506001620002d360201b60201c565b620001f36040518060400160405280600c81526020017f6d616a696e5f76656765746100000000000000000000000000000000000000008152506001620002d360201b60201c565b62000d91565b63ffffffff60e01b817bffffffffffffffffffffffffffffffffffffffffffffffffffffffff19161415151562000267576040517f08c379a00000000000000000000000000000000000000000000000000000000081526004016200025e9062000c8a565b60405180910390fd5b6001600080837bffffffffffffffffffffffffffffffffffffffffffffffffffffffff19167bffffffffffffffffffffffffffffffffffffffffffffffffffffffff1916815260200190815260200160002060006101000a81548160ff02191690831515021790555050565b6000620002e83384846200030160201b60201c565b9050620002fc33826200046360201b60201c565b505050565b60008083511115156200031357600080fd5b6000821115156200032357600080fd5b600e600081548092919060010191905055506200033f620009ff565b6040518060800160405280600e5481526020014267ffffffffffffffff168152602001858152602001848152509050600d81908060018154018082558091505090600182039060005260206000209060040201600090919290919091506000820151816000015560208201518160010160006101000a81548167ffffffffffffffff021916908367ffffffffffffffff1602179055506040820151816002019080519060200190620003f392919062000a31565b50606082015181600301555050507f47f66c025eea73c85dbf6e0fab1339cbfefe7e4fce8b05778c3ef4559cb2aba985600e5486604051620004389392919062000c46565b60405180910390a162000456600086600e54620004a160201b60201c565b600e549150509392505050565b6200047a82826200060c60201b6200171c1760201c565b6200048c8282620007dd60201b60201c565b6200049d81620008a460201b60201c565b5050565b601060008373ffffffffffffffffffffffffffffffffffffffff1673ffffffffffffffffffffffffffffffffffffffff1681526020019081526020016000206000815480929190600101919050555081600f600083815260200190815260200160002060006101000a81548173ffffffffffffffffffffffffffffffffffffffff021916908373ffffffffffffffffffffffffffffffffffffffff160217905550600073ffffffffffffffffffffffffffffffffffffffff168373ffffffffffffffffffffffffffffffffffffffff16141515620005ca57601060008473ffffffffffffffffffffffffffffffffffffffff1673ffffffffffffffffffffffffffffffffffffffff16815260200190815260200160002060008154809291906001900391905055505b7fddf252ad1be2c89b69c2b068fc378daa952ba7f163c4a11628f55a4df523b3ef838383604051620005ff9392919062000c09565b60405180910390a1505050565b600073ffffffffffffffffffffffffffffffffffffffff168273ffffffffffffffffffffffffffffffffffffffff161415151562000681576040517f08c379a0000000000000000000000000000000000000000000000000000000008152600401620006789062000cce565b60405180910390fd5b6200069281620008f060201b60201c565b151515620006d7576040517f08c379a0000000000000000000000000000000000000000000000000000000008152600401620006ce9062000cac565b60405180910390fd5b816001600083815260200190815260200160002060006101000a81548173ffffffffffffffffffffffffffffffffffffffff021916908373ffffffffffffffffffffffffffffffffffffffff1602179055506200077d600360008473ffffffffffffffffffffffffffffffffffffffff1673ffffffffffffffffffffffffffffffffffffffff1681526020019081526020016000206200096260201b62001fba1760201c565b808273ffffffffffffffffffffffffffffffffffffffff16600073ffffffffffffffffffffffffffffffffffffffff167fddf252ad1be2c89b69c2b068fc378daa952ba7f163c4a11628f55a4df523b3ef60405160405180910390a45050565b600560008373ffffffffffffffffffffffffffffffffffffffff1673ffffffffffffffffffffffffffffffffffffffff168152602001908152602001600020805490506006600083815260200190815260200160002081905550600560008373ffffffffffffffffffffffffffffffffffffffff1673ffffffffffffffffffffffffffffffffffffffff1681526020019081526020016000208190806001815401808255809150509060018203906000526020600020016000909192909190915055505050565b6007805490506008600083815260200190815260200160002081905550600781908060018154018082558091505090600182039060005260206000200160009091929091909150555050565b6000806001600084815260200190815260200160002060009054906101000a900473ffffffffffffffffffffffffffffffffffffffff169050600073ffffffffffffffffffffffffffffffffffffffff168173ffffffffffffffffffffffffffffffffffffffff161415915050919050565b6001816000016000828254019250508190555050565b828054600181600116156101000203166002900490600052602060002090601f016020900481019282601f10620009bb57805160ff1916838001178555620009ec565b82800160010185558215620009ec579182015b82811115620009eb578251825591602001919060010190620009ce565b5b509050620009fb919062000ab8565b5090565b604051806080016040528060008152602001600067ffffffffffffffff16815260200160608152602001600081525090565b828054600181600116156101000203166002900490600052602060002090601f016020900481019282601f1062000a7457805160ff191683800117855562000aa5565b8280016001018555821562000aa5579182015b8281111562000aa457825182559160200191906001019062000a87565b5b50905062000ab4919062000ab8565b5090565b62000add91905b8082111562000ad957600081600090555060010162000abf565b5090565b90565b62000aeb8162000d0c565b82525050565b600062000afe8262000cf0565b62000b0a818562000cfb565b935062000b1c81856020860162000d4a565b62000b278162000d80565b840191505092915050565b600062000b41601c8362000cfb565b91507f4552433136353a20696e76616c696420696e74657266616365206964000000006000830152602082019050919050565b600062000b83601c8362000cfb565b91507f4552433732313a20746f6b656e20616c7265616479206d696e746564000000006000830152602082019050919050565b600062000bc560208362000cfb565b91507f4552433732313a206d696e7420746f20746865207a65726f20616464726573736000830152602082019050919050565b62000c038162000d40565b82525050565b600060608201905062000c20600083018662000ae0565b62000c2f602083018562000ae0565b62000c3e604083018462000bf8565b949350505050565b600060608201905062000c5d600083018662000ae0565b62000c6c602083018562000bf8565b818103604083015262000c80818462000af1565b9050949350505050565b6000602082019050818103600083015262000ca58162000b32565b9050919050565b6000602082019050818103600083015262000cc78162000b74565b9050919050565b6000602082019050818103600083015262000ce98162000bb6565b9050919050565b600081519050919050565b600082825260208201905092915050565b600062000d198262000d20565b9050919050565b600073ffffffffffffffffffffffffffffffffffffffff82169050919050565b6000819050919050565b60005b8381101562000d6a57808201518184015260208101905062000d4d565b8381111562000d7a576000848401525b50505050565b6000601f19601f8301169050919050565b6135c48062000da16000396000f3fe608060405234801561001057600080fd5b50600436106101375760003560e01c80636352211e116100b857806395d89b411161007c57806395d89b4114610389578063a22cb465146103a7578063b0df9e53146103c3578063b88d4fde146103e1578063c87b56dd146103fd578063e985e9c51461042d57610137565b80636352211e146102a85780636c0360eb146102d857806370a08231146102f657806378d0df50146103265780638dc107681461035657610137565b806318160ddd116100ff57806318160ddd146101f257806323b872dd146102105780632f745c591461022c57806342842e0e1461025c5780634f6ccce71461027857610137565b806301ffc9a71461013c578063056b01ce1461016c57806306fdde0314610188578063081812fc146101a6578063095ea7b3146101d6575b600080fd5b6101566004803603610151919081019061255f565b61045d565b604051610163919061307a565b60405180910390f35b610186600480360361018191908101906125b1565b6104c4565b005b6101906104e2565b60405161019d9190613095565b60405180910390f35b6101c060048036036101bb9190810190612605565b610584565b6040516101cd9190612f7c565b60405180910390f35b6101f060048036036101eb9190810190612523565b61060b565b005b6101fa6107ca565b60405161020791906132b7565b60405180910390f35b61022a6004803603610225919081019061241d565b6107d7565b005b61024660048036036102419190810190612523565b610839565b60405161025391906132b7565b60405180910390f35b6102766004803603610271919081019061241d565b6108e6565b005b610292600480360361028d9190810190612605565b610906565b60405161029f91906132b7565b60405180910390f35b6102c260048036036102bd9190810190612605565b610974565b6040516102cf9190612f7c565b60405180910390f35b6102e0610a28565b6040516102ed9190613095565b60405180910390f35b610310600480360361030b91908101906123b8565b610aca565b60405161031d91906132b7565b60405180910390f35b610340600480360361033b9190810190612605565b610b8b565b60405161034d9190612f7c565b60405180910390f35b610370600480360361036b9190810190612605565b610bbe565b60405161038094939291906132d2565b60405180910390f35b610391610ca9565b60405161039e9190613095565b60405180910390f35b6103c160048036036103bc91908101906124e7565b610d4b565b005b6103cb610ece565b6040516103d89190613058565b60405180910390f35b6103fb60048036036103f6919081019061246c565b611015565b005b61041760048036036104129190810190612605565b611079565b6040516104249190613095565b60405180910390f35b610447600480360361044291908101906123e1565b6111c3565b604051610454919061307a565b60405180910390f35b6000806000837bffffffffffffffffffffffffffffffffffffffffffffffffffffffff19167bffffffffffffffffffffffffffffffffffffffffffffffffffffffff1916815260200190815260200160002060009054906101000a900460ff169050919050565b60006104d1338484611257565b90506104dd33826113a9565b505050565b606060098054600181600116156101000203166002900480601f01602080910402602001604051908101604052809291908181526020018280546001816001161561010002031660029004801561057a5780601f1061054f5761010080835404028352916020019161057a565b820191906000526020600020905b81548152906001019060200180831161055d57829003601f168201915b5050505050905090565b600061058f826113ca565b15156105d0576040517f08c379a00000000000000000000000000000000000000000000000000000000081526004016105c7906131f7565b60405180910390fd5b6002600083815260200190815260200160002060009054906101000a900473ffffffffffffffffffffffffffffffffffffffff169050919050565b600061061682610974565b90508073ffffffffffffffffffffffffffffffffffffffff168373ffffffffffffffffffffffffffffffffffffffff1614151515610689576040517f08c379a000000000000000000000000000000000000000000000000000000000815260040161068090613257565b60405180910390fd5b8073ffffffffffffffffffffffffffffffffffffffff166106a861143c565b73ffffffffffffffffffffffffffffffffffffffff1614806106d757506106d6816106d161143c565b6111c3565b5b1515610718576040517f08c379a000000000000000000000000000000000000000000000000000000000815260040161070f90613177565b60405180910390fd5b826002600084815260200190815260200160002060006101000a81548173ffffffffffffffffffffffffffffffffffffffff021916908373ffffffffffffffffffffffffffffffffffffffff160217905550818373ffffffffffffffffffffffffffffffffffffffff168273ffffffffffffffffffffffffffffffffffffffff167f8c5be1e5ebec7d5bd14f71427d1e84f3dd0314c0f7b2291e5b200ac8c7c3b92560405160405180910390a4505050565b6000600780549050905090565b6107e86107e261143c565b82611444565b1515610829576040517f08c379a000000000000000000000000000000000000000000000000000000000815260040161082090613277565b60405180910390fd5b610834838383611524565b505050565b600061084483610aca565b82101515610887576040517f08c379a000000000000000000000000000000000000000000000000000000000815260040161087e906130b7565b60405180910390fd5b600560008473ffffffffffffffffffffffffffffffffffffffff1673ffffffffffffffffffffffffffffffffffffffff168152602001908152602001600020828154811015156108d357fe5b9060005260206000200154905092915050565b61090183838360405180602001604052806000815250611015565b505050565b60006109106107ca565b82101515610953576040517f08c379a000000000000000000000000000000000000000000000000000000000815260040161094a90613297565b60405180910390fd5b60078281548110151561096257fe5b90600052602060002001549050919050565b6000806001600084815260200190815260200160002060009054906101000a900473ffffffffffffffffffffffffffffffffffffffff169050600073ffffffffffffffffffffffffffffffffffffffff168173ffffffffffffffffffffffffffffffffffffffff1614151515610a1f576040517f08c379a0000000000000000000000000000000000000000000000000000000008152600401610a16906131b7565b60405180910390fd5b80915050919050565b6060600b8054600181600116156101000203166002900480601f016020809104026020016040519081016040528092919081815260200182805460018160011615610100020316600290048015610ac05780601f10610a9557610100808354040283529160200191610ac0565b820191906000526020600020905b815481529060010190602001808311610aa357829003601f168201915b5050505050905090565b60008073ffffffffffffffffffffffffffffffffffffffff168273ffffffffffffffffffffffffffffffffffffffff1614151515610b3d576040517f08c379a0000000000000000000000000000000000000000000000000000000008152600401610b3490613197565b60405180910390fd5b610b84600360008473ffffffffffffffffffffffffffffffffffffffff1673ffffffffffffffffffffffffffffffffffffffff168152602001908152602001600020611548565b9050919050565b600f6020528060005260406000206000915054906101000a900473ffffffffffffffffffffffffffffffffffffffff1681565b600d81815481101515610bcd57fe5b90600052602060002090600402016000915090508060000154908060010160009054906101000a900467ffffffffffffffff1690806002018054600181600116156101000203166002900480601f016020809104026020016040519081016040528092919081815260200182805460018160011615610100020316600290048015610c995780601f10610c6e57610100808354040283529160200191610c99565b820191906000526020600020905b815481529060010190602001808311610c7c57829003601f168201915b5050505050908060030154905084565b6060600a8054600181600116156101000203166002900480601f016020809104026020016040519081016040528092919081815260200182805460018160011615610100020316600290048015610d415780601f10610d1657610100808354040283529160200191610d41565b820191906000526020600020905b815481529060010190602001808311610d2457829003601f168201915b5050505050905090565b610d5361143c565b73ffffffffffffffffffffffffffffffffffffffff168273ffffffffffffffffffffffffffffffffffffffff1614151515610dc3576040517f08c379a0000000000000000000000000000000000000000000000000000000008152600401610dba90613137565b60405180910390fd5b8060046000610dd061143c565b73ffffffffffffffffffffffffffffffffffffffff1673ffffffffffffffffffffffffffffffffffffffff16815260200190815260200160002060008473ffffffffffffffffffffffffffffffffffffffff1673ffffffffffffffffffffffffffffffffffffffff16815260200190815260200160002060006101000a81548160ff0219169083151502179055508173ffffffffffffffffffffffffffffffffffffffff16610e7d61143c565b73ffffffffffffffffffffffffffffffffffffffff167f17307eab39ab6107e8899845ad3d59bd9653f200f220920489ca2b5937696c3183604051610ec2919061307a565b60405180910390a35050565b6060600d805480602002602001604051908101604052809291908181526020016000905b8282101561100c5783829060005260206000209060040201604051806080016040529081600082015481526020016001820160009054906101000a900467ffffffffffffffff1667ffffffffffffffff1667ffffffffffffffff168152602001600282018054600181600116156101000203166002900480601f016020809104026020016040519081016040528092919081815260200182805460018160011615610100020316600290048015610fea5780601f10610fbf57610100808354040283529160200191610fea565b820191906000526020600020905b815481529060010190602001808311610fcd57829003601f168201915b5050505050815260200160038201548152505081526020019060010190610ef2565b50505050905090565b61102661102061143c565b83611444565b1515611067576040517f08c379a000000000000000000000000000000000000000000000000000000000815260040161105e90613277565b60405180910390fd5b61107384848484611556565b50505050565b6060611084826113ca565b15156110c5576040517f08c379a00000000000000000000000000000000000000000000000000000000081526004016110bc90613237565b60405180910390fd5b6060600c60008481526020019081526020016000208054600181600116156101000203166002900480601f01602080910402602001604051908101604052809291908181526020018280546001816001161561010002031660029004801561116e5780601f106111435761010080835404028352916020019161116e565b820191906000526020600020905b81548152906001019060200180831161115157829003601f168201915b5050505050905060008151141561119757604051806020016040528060008152509150506111be565b600b816040516020016111ab929190612f58565b6040516020818303038152906040529150505b919050565b6000600460008473ffffffffffffffffffffffffffffffffffffffff1673ffffffffffffffffffffffffffffffffffffffff16815260200190815260200160002060008373ffffffffffffffffffffffffffffffffffffffff1673ffffffffffffffffffffffffffffffffffffffff16815260200190815260200160002060009054906101000a900460ff16905092915050565b600080835111151561126857600080fd5b60008211151561127757600080fd5b600e600081548092919060010191905055506112916121a5565b6040518060800160405280600e5481526020014267ffffffffffffffff168152602001858152602001848152509050600d81908060018154018082558091505090600182039060005260206000209060040201600090919290919091506000820151816000015560208201518160010160006101000a81548167ffffffffffffffff021916908367ffffffffffffffff16021790555060408201518160020190805190602001906113439291906121d7565b50606082015181600301555050507f47f66c025eea73c85dbf6e0fab1339cbfefe7e4fce8b05778c3ef4559cb2aba985600e54866040516113869392919061301a565b60405180910390a161139c600086600e546115b4565b600e549150509392505050565b6113b3828261171c565b6113bd82826118d2565b6113c681611999565b5050565b6000806001600084815260200190815260200160002060009054906101000a900473ffffffffffffffffffffffffffffffffffffffff169050600073ffffffffffffffffffffffffffffffffffffffff168173ffffffffffffffffffffffffffffffffffffffff161415915050919050565b600033905090565b600061144f826113ca565b1515611490576040517f08c379a000000000000000000000000000000000000000000000000000000000815260040161148790613157565b60405180910390fd5b600061149b83610974565b90508073ffffffffffffffffffffffffffffffffffffffff168473ffffffffffffffffffffffffffffffffffffffff16148061150a57508373ffffffffffffffffffffffffffffffffffffffff166114f284610584565b73ffffffffffffffffffffffffffffffffffffffff16145b8061151b575061151a81856111c3565b5b91505092915050565b61152f8383836119e5565b6115398382611c18565b61154382826118d2565b505050565b600081600001549050919050565b611561848484611524565b61156d84848484611dbc565b15156115ae576040517f08c379a00000000000000000000000000000000000000000000000000000000081526004016115a5906130d7565b60405180910390fd5b50505050565b601060008373ffffffffffffffffffffffffffffffffffffffff1673ffffffffffffffffffffffffffffffffffffffff1681526020019081526020016000206000815480929190600101919050555081600f600083815260200190815260200160002060006101000a81548173ffffffffffffffffffffffffffffffffffffffff021916908373ffffffffffffffffffffffffffffffffffffffff160217905550600073ffffffffffffffffffffffffffffffffffffffff168373ffffffffffffffffffffffffffffffffffffffff161415156116dc57601060008473ffffffffffffffffffffffffffffffffffffffff1673ffffffffffffffffffffffffffffffffffffffff16815260200190815260200160002060008154809291906001900391905055505b7fddf252ad1be2c89b69c2b068fc378daa952ba7f163c4a11628f55a4df523b3ef83838360405161170f93929190612fe3565b60405180910390a1505050565b600073ffffffffffffffffffffffffffffffffffffffff168273ffffffffffffffffffffffffffffffffffffffff161415151561178e576040517f08c379a0000000000000000000000000000000000000000000000000000000008152600401611785906131d7565b60405180910390fd5b611797816113ca565b1515156117d9576040517f08c379a00000000000000000000000000000000000000000000000000000000081526004016117d0906130f7565b60405180910390fd5b816001600083815260200190815260200160002060006101000a81548173ffffffffffffffffffffffffffffffffffffffff021916908373ffffffffffffffffffffffffffffffffffffffff160217905550611872600360008473ffffffffffffffffffffffffffffffffffffffff1673ffffffffffffffffffffffffffffffffffffffff168152602001908152602001600020611fba565b808273ffffffffffffffffffffffffffffffffffffffff16600073ffffffffffffffffffffffffffffffffffffffff167fddf252ad1be2c89b69c2b068fc378daa952ba7f163c4a11628f55a4df523b3ef60405160405180910390a45050565b600560008373ffffffffffffffffffffffffffffffffffffffff1673ffffffffffffffffffffffffffffffffffffffff168152602001908152602001600020805490506006600083815260200190815260200160002081905550600560008373ffffffffffffffffffffffffffffffffffffffff1673ffffffffffffffffffffffffffffffffffffffff1681526020019081526020016000208190806001815401808255809150509060018203906000526020600020016000909192909190915055505050565b6007805490506008600083815260200190815260200160002081905550600781908060018154018082558091505090600182039060005260206000200160009091929091909150555050565b8273ffffffffffffffffffffffffffffffffffffffff16611a0582610974565b73ffffffffffffffffffffffffffffffffffffffff16141515611a5d576040517f08c379a0000000000000000000000000000000000000000000000000000000008152600401611a5490613217565b60405180910390fd5b600073ffffffffffffffffffffffffffffffffffffffff168273ffffffffffffffffffffffffffffffffffffffff1614151515611acf576040517f08c379a0000000000000000000000000000000000000000000000000000000008152600401611ac690613117565b60405180910390fd5b611ad881611fd0565b611b1f600360008573ffffffffffffffffffffffffffffffffffffffff1673ffffffffffffffffffffffffffffffffffffffff168152602001908152602001600020612090565b611b66600360008473ffffffffffffffffffffffffffffffffffffffff1673ffffffffffffffffffffffffffffffffffffffff168152602001908152602001600020611fba565b816001600083815260200190815260200160002060006101000a81548173ffffffffffffffffffffffffffffffffffffffff021916908373ffffffffffffffffffffffffffffffffffffffff160217905550808273ffffffffffffffffffffffffffffffffffffffff168473ffffffffffffffffffffffffffffffffffffffff167fddf252ad1be2c89b69c2b068fc378daa952ba7f163c4a11628f55a4df523b3ef60405160405180910390a4505050565b6000611c706001600560008673ffffffffffffffffffffffffffffffffffffffff1673ffffffffffffffffffffffffffffffffffffffff168152602001908152602001600020805490506120b390919063ffffffff16565b90506000600660008481526020019081526020016000205490508181141515611d63576000600560008673ffffffffffffffffffffffffffffffffffffffff1673ffffffffffffffffffffffffffffffffffffffff16815260200190815260200160002083815481101515611ce157fe5b9060005260206000200154905080600560008773ffffffffffffffffffffffffffffffffffffffff1673ffffffffffffffffffffffffffffffffffffffff16815260200190815260200160002083815481101515611d3b57fe5b9060005260206000200181905550816006600083815260200190815260200160002081905550505b600560008573ffffffffffffffffffffffffffffffffffffffff1673ffffffffffffffffffffffffffffffffffffffff168152602001908152602001600020805480919060019003611db59190612257565b5050505050565b6000611ddd8473ffffffffffffffffffffffffffffffffffffffff166120fd565b1515611dec5760019050611fb2565b600060608573ffffffffffffffffffffffffffffffffffffffff168673ffffffffffffffffffffffffffffffffffffffff1663150b7a02905060e01b611e3061143c565b898888604051602401611e469493929190612f97565b604051602081830303815290604052907bffffffffffffffffffffffffffffffffffffffffffffffffffffffff19166020820180517bffffffffffffffffffffffffffffffffffffffffffffffffffffffff8381831617835250505050604051611eb09190612f41565b6000604051808303816000865af19150503d8060008114611eed576040519150601f19603f3d011682016040523d82523d6000602084013e611ef2565b606091505b5091509150811515611f4c57600081511115611f115780518082602001fd5b6040517f08c379a0000000000000000000000000000000000000000000000000000000008152600401611f43906130d7565b60405180910390fd5b600081806020019051611f629190810190612588565b905063150b7a0260e01b7bffffffffffffffffffffffffffffffffffffffffffffffffffffffff1916817bffffffffffffffffffffffffffffffffffffffffffffffffffffffff19161493505050505b949350505050565b6001816000016000828254019250508190555050565b600073ffffffffffffffffffffffffffffffffffffffff166002600083815260200190815260200160002060009054906101000a900473ffffffffffffffffffffffffffffffffffffffff1673ffffffffffffffffffffffffffffffffffffffff1614151561208d5760006002600083815260200190815260200160002060006101000a81548173ffffffffffffffffffffffffffffffffffffffff021916908373ffffffffffffffffffffffffffffffffffffffff1602179055505b50565b6120a8600182600001546120b390919063ffffffff16565b816000018190555050565b60006120f583836040518060400160405280601e81526020017f536166654d6174683a207375627472616374696f6e206f766572666c6f770000815250612148565b905092915050565b60008060007fc5d2460186f7233c927e7db2dcc703c0e500b653ca82273b7bfad8045d85a47060001b9050833f915080821415801561213f57506000801b8214155b92505050919050565b60008383111582901515612192576040517f08c379a00000000000000000000000000000000000000000000000000000000081526004016121899190613095565b60405180910390fd5b5060008385039050809150509392505050565b604051806080016040528060008152602001600067ffffffffffffffff16815260200160608152602001600081525090565b828054600181600116156101000203166002900490600052602060002090601f016020900481019282601f1061221857805160ff1916838001178555612246565b82800160010185558215612246579182015b8281111561224557825182559160200191906001019061222a565b5b5090506122539190612283565b5090565b81548183558181111561227e5781836000526020600020918201910161227d9190612283565b5b505050565b6122a591905b808211156122a1576000816000905550600101612289565b5090565b90565b60006122b482356134c3565b905092915050565b60006122c882356134d5565b905092915050565b60006122dc82356134e1565b905092915050565b60006122f082516134e1565b905092915050565b600082601f830112151561230b57600080fd5b813561231e6123198261334b565b61331e565b9150808252602083016020830185838301111561233a57600080fd5b612345838284613537565b50505092915050565b600082601f830112151561236157600080fd5b813561237461236f82613377565b61331e565b9150808252602083016020830185838301111561239057600080fd5b61239b838284613537565b50505092915050565b60006123b0823561352d565b905092915050565b6000602082840312156123ca57600080fd5b60006123d8848285016122a8565b91505092915050565b600080604083850312156123f457600080fd5b6000612402858286016122a8565b9250506020612413858286016122a8565b9150509250929050565b60008060006060848603121561243257600080fd5b6000612440868287016122a8565b9350506020612451868287016122a8565b9250506040612462868287016123a4565b9150509250925092565b6000806000806080858703121561248257600080fd5b6000612490878288016122a8565b94505060206124a1878288016122a8565b93505060406124b2878288016123a4565b925050606085013567ffffffffffffffff8111156124cf57600080fd5b6124db878288016122f8565b91505092959194509250565b600080604083850312156124fa57600080fd5b6000612508858286016122a8565b9250506020612519858286016122bc565b9150509250929050565b6000806040838503121561253657600080fd5b6000612544858286016122a8565b9250506020612555858286016123a4565b9150509250929050565b60006020828403121561257157600080fd5b600061257f848285016122d0565b91505092915050565b60006020828403121561259a57600080fd5b60006125a8848285016122e4565b91505092915050565b600080604083850312156125c457600080fd5b600083013567ffffffffffffffff8111156125de57600080fd5b6125ea8582860161234e565b92505060206125fb858286016123a4565b9150509250929050565b60006020828403121561261757600080fd5b6000612625848285016123a4565b91505092915050565b600061263a8383612ea2565b905092915050565b61264b81613467565b82525050565b61265a81613455565b82525050565b600061266b826133c2565b61267581856133fb565b935083602082028501612687856133a3565b60005b848110156126c05783830388526126a283835161262e565b92506126ad826133ee565b915060208801975060018101905061268a565b508196508694505050505092915050565b6126da81613479565b82525050565b60006126eb826133cd565b6126f5818561340c565b9350612705818560208601613546565b61270e81613579565b840191505092915050565b6000612724826133cd565b61272e818561341d565b935061273e818560208601613546565b80840191505092915050565b6000612755826133e3565b61275f8185613439565b935061276f818560208601613546565b61277881613579565b840191505092915050565b600061278e826133e3565b612798818561344a565b93506127a8818560208601613546565b80840191505092915050565b60006127bf826133d8565b6127c98185613428565b93506127d9818560208601613546565b6127e281613579565b840191505092915050565b60006127f8826133d8565b6128028185613439565b9350612812818560208601613546565b61281b81613579565b840191505092915050565b6000815460018116600081146128435760018114612868576128ac565b607f6002830416612854818761344a565b955060ff19831686528086019350506128ac565b60028204612876818761344a565b9550612881856133b0565b60005b828110156128a357815481890152600182019150602081019050612884565b82880195505050505b505092915050565b60006128c1602b83613439565b91507f455243373231456e756d657261626c653a206f776e657220696e646578206f7560008301527f74206f6620626f756e64730000000000000000000000000000000000000000006020830152604082019050919050565b6000612927603283613439565b91507f4552433732313a207472616e7366657220746f206e6f6e20455243373231526560008301527f63656976657220696d706c656d656e74657200000000000000000000000000006020830152604082019050919050565b600061298d601c83613439565b91507f4552433732313a20746f6b656e20616c7265616479206d696e746564000000006000830152602082019050919050565b60006129cd602483613439565b91507f4552433732313a207472616e7366657220746f20746865207a65726f2061646460008301527f72657373000000000000000000000000000000000000000000000000000000006020830152604082019050919050565b6000612a33601983613439565b91507f4552433732313a20617070726f766520746f2063616c6c6572000000000000006000830152602082019050919050565b6000612a73602c83613439565b91507f4552433732313a206f70657261746f7220717565727920666f72206e6f6e657860008301527f697374656e7420746f6b656e00000000000000000000000000000000000000006020830152604082019050919050565b6000612ad9603883613439565b91507f4552433732313a20617070726f76652063616c6c6572206973206e6f74206f7760008301527f6e6572206e6f7220617070726f76656420666f7220616c6c00000000000000006020830152604082019050919050565b6000612b3f602a83613439565b91507f4552433732313a2062616c616e636520717565727920666f7220746865207a6560008301527f726f2061646472657373000000000000000000000000000000000000000000006020830152604082019050919050565b6000612ba5602983613439565b91507f4552433732313a206f776e657220717565727920666f72206e6f6e657869737460008301527f656e7420746f6b656e00000000000000000000000000000000000000000000006020830152604082019050919050565b6000612c0b602083613439565b91507f4552433732313a206d696e7420746f20746865207a65726f20616464726573736000830152602082019050919050565b6000612c4b602c83613439565b91507f4552433732313a20617070726f76656420717565727920666f72206e6f6e657860008301527f697374656e7420746f6b656e00000000000000000000000000000000000000006020830152604082019050919050565b6000612cb1602983613439565b91507f4552433732313a207472616e73666572206f6620746f6b656e2074686174206960008301527f73206e6f74206f776e00000000000000000000000000000000000000000000006020830152604082019050919050565b6000612d17602f83613439565b91507f4552433732314d657461646174613a2055524920717565727920666f72206e6f60008301527f6e6578697374656e7420746f6b656e00000000000000000000000000000000006020830152604082019050919050565b6000612d7d602183613439565b91507f4552433732313a20617070726f76616c20746f2063757272656e74206f776e6560008301527f72000000000000000000000000000000000000000000000000000000000000006020830152604082019050919050565b6000612de3603183613439565b91507f4552433732313a207472616e736665722063616c6c6572206973206e6f74206f60008301527f776e6572206e6f7220617070726f7665640000000000000000000000000000006020830152604082019050919050565b6000612e49602c83613439565b91507f455243373231456e756d657261626c653a20676c6f62616c20696e646578206f60008301527f7574206f6620626f756e647300000000000000000000000000000000000000006020830152604082019050919050565b6000608083016000830151612eba6000860182612f05565b506020830151612ecd6020860182612f23565b5060408301518482036040860152612ee582826127b4565b9150506060830151612efa6060860182612f05565b508091505092915050565b612f0e816134a5565b82525050565b612f1d816134a5565b82525050565b612f2c816134af565b82525050565b612f3b816134af565b82525050565b6000612f4d8284612719565b915081905092915050565b6000612f648285612826565b9150612f708284612783565b91508190509392505050565b6000602082019050612f916000830184612651565b92915050565b6000608082019050612fac6000830187612642565b612fb96020830186612651565b612fc66040830185612f14565b8181036060830152612fd881846126e0565b905095945050505050565b6000606082019050612ff86000830186612651565b6130056020830185612651565b6130126040830184612f14565b949350505050565b600060608201905061302f6000830186612651565b61303c6020830185612f14565b818103604083015261304e818461274a565b9050949350505050565b600060208201905081810360008301526130728184612660565b905092915050565b600060208201905061308f60008301846126d1565b92915050565b600060208201905081810360008301526130af818461274a565b905092915050565b600060208201905081810360008301526130d0816128b4565b9050919050565b600060208201905081810360008301526130f08161291a565b9050919050565b6000602082019050818103600083015261311081612980565b9050919050565b60006020820190508181036000830152613130816129c0565b9050919050565b6000602082019050818103600083015261315081612a26565b9050919050565b6000602082019050818103600083015261317081612a66565b9050919050565b6000602082019050818103600083015261319081612acc565b9050919050565b600060208201905081810360008301526131b081612b32565b9050919050565b600060208201905081810360008301526131d081612b98565b9050919050565b600060208201905081810360008301526131f081612bfe565b9050919050565b6000602082019050818103600083015261321081612c3e565b9050919050565b6000602082019050818103600083015261323081612ca4565b9050919050565b6000602082019050818103600083015261325081612d0a565b9050919050565b6000602082019050818103600083015261327081612d70565b9050919050565b6000602082019050818103600083015261329081612dd6565b9050919050565b600060208201905081810360008301526132b081612e3c565b9050919050565b60006020820190506132cc6000830184612f14565b92915050565b60006080820190506132e76000830187612f14565b6132f46020830186612f32565b818103604083015261330681856127ed565b90506133156060830184612f14565b95945050505050565b6000604051905081810181811067ffffffffffffffff8211171561334157600080fd5b8060405250919050565b600067ffffffffffffffff82111561336257600080fd5b601f19601f8301169050602081019050919050565b600067ffffffffffffffff82111561338e57600080fd5b601f19601f8301169050602081019050919050565b6000602082019050919050565b60008160005260206000209050919050565b600081519050919050565b600081519050919050565b600081519050919050565b600081519050919050565b6000602082019050919050565b600082825260208201905092915050565b600082825260208201905092915050565b600081905092915050565b600082825260208201905092915050565b600082825260208201905092915050565b600081905092915050565b600061346082613485565b9050919050565b600061347282613485565b9050919050565b60008115159050919050565b600073ffffffffffffffffffffffffffffffffffffffff82169050919050565b6000819050919050565b600067ffffffffffffffff82169050919050565b60006134ce8261350d565b9050919050565b60008115159050919050565b60007fffffffff0000000000000000000000000000000000000000000000000000000082169050919050565b600073ffffffffffffffffffffffffffffffffffffffff82169050919050565b6000819050919050565b82818337600083830152505050565b60005b83811015613564578082015181840152602081019050613549565b83811115613573576000848401525b50505050565b6000601f19601f830116905091905056fea265627a7a72305820e8e841d1966d10b9f0111dbd99c34e5f49f8780d106ab57579b87e4bffde56566c6578706572696d656e74616cf50037",
  "source": "pragma solidity >=0.4.21 <=0.6.4;\npragma experimental ABIEncoderV2;\n\nimport \"@openzeppelin/contracts/token/ERC721/ERC721Full.sol\";\n\ncontract DBZCollectible is ERC721Full {\n    DBCard[] public cards;\n    uint256 nonce = 0;\n    mapping(uint256 => address) public cardIndexToOwner;\n    mapping(address => uint256) ownershipTokenCount;\n\n    event Created(address owner, uint256 cardID, string cardType);\n    event Transfer(address from, address to, uint256 tokenId);\n\n    struct DBCard {\n        uint256 id;\n        uint64 birthTime;\n        string cardType;\n        uint price;\n    }\n\n    function getCards() external returns(DBCard[] memory) {\n        return cards;\n    }\n\n    constructor() public ERC721Full(\"Dragon Ball Card\", \"DBZCARD\") {\n        mint('goku_ss_namek', 1);\n        mint('broly_dbs_ss', 1);\n        mint('majin_vegeta', 1);\n    }\n\n    function _transfer(address _from, address _to, uint256 _tokenId) internal {\n        ownershipTokenCount[_to]++;\n        cardIndexToOwner[_tokenId] = _to;\n\n        if (_from != address(0)) {\n            ownershipTokenCount[_from]--;\n        }\n\n        emit Transfer(_from, _to, _tokenId);\n    }\n\n    function _createDBCard(address _owner,string memory _cardType, uint _price) internal returns (uint)\n    {\n        require(bytes(_cardType).length > 0);\n        require(_price > 0);\n\n        nonce++;\n\n        DBCard memory _DBCard = DBCard({\n            id: nonce,\n            birthTime: uint64(now),\n            cardType: _cardType,\n            price: _price\n        });\n\n        cards.push(_DBCard);\n\n        emit Created(_owner, nonce, _cardType);\n\n        _transfer(address(0), _owner, nonce);\n\n        return nonce;\n    }\n\n    function mint(string memory cardType, uint _price) public {\n        uint _id = _createDBCard(msg.sender, cardType, _price);\n        _mint(msg.sender, _id);\n    }\n}\n",
  "sourcePath": "/home/jose/projects/blockchain/dbz-cards/src/contracts/DBZCollectible.sol",
  "compiler": {
    "name": "solc",
    "version": "0.5.5+commit.47a71e8f.Emscripten.clang"
  },
  "schemaVersion": "3.0.20",
  "updatedAt": "2020-04-12T16:26:55.376Z",
  "networkType": "ethereum",
  "devdoc": {
    "methods": {
      "approve(address,uint256)": {
        "details": "Approves another address to transfer the given token ID The zero address indicates there is no approved address. There can only be one approved address per token at a given time. Can only be called by the token owner or an approved operator.",
        "params": {
          "to": "address to be approved for the given token ID",
          "tokenId": "uint256 ID of the token to be approved"
        }
      },
      "balanceOf(address)": {
        "details": "Gets the balance of the specified address.",
        "params": {
          "owner": "address to query the balance of"
        },
        "return": "uint256 representing the amount owned by the passed address"
      },
      "baseURI()": {
        "details": "Returns the base URI set via {_setBaseURI}. This will be automatically added as a preffix in {tokenURI} to each token's URI, when they are non-empty.    * _Available since v2.5.0._"
      },
      "getApproved(uint256)": {
        "details": "Gets the approved address for a token ID, or zero if no address set Reverts if the token ID does not exist.",
        "params": {
          "tokenId": "uint256 ID of the token to query the approval of"
        },
        "return": "address currently approved for the given token ID"
      },
      "isApprovedForAll(address,address)": {
        "details": "Tells whether an operator is approved by a given owner.",
        "params": {
          "operator": "operator address which you want to query the approval of",
          "owner": "owner address which you want to query the approval of"
        },
        "return": "bool whether the given operator is approved by the given owner"
      },
      "name()": {
        "details": "Gets the token name.",
        "return": "string representing the token name"
      },
      "ownerOf(uint256)": {
        "details": "Gets the owner of the specified token ID.",
        "params": {
          "tokenId": "uint256 ID of the token to query the owner of"
        },
        "return": "address currently marked as the owner of the given token ID"
      },
      "safeTransferFrom(address,address,uint256)": {
        "details": "Safely transfers the ownership of a given token ID to another address If the target address is a contract, it must implement {IERC721Receiver-onERC721Received}, which is called upon a safe transfer, and return the magic value `bytes4(keccak256(\"onERC721Received(address,address,uint256,bytes)\"))`; otherwise, the transfer is reverted. Requires the msg.sender to be the owner, approved, or operator",
        "params": {
          "from": "current owner of the token",
          "to": "address to receive the ownership of the given token ID",
          "tokenId": "uint256 ID of the token to be transferred"
        }
      },
      "safeTransferFrom(address,address,uint256,bytes)": {
        "details": "Safely transfers the ownership of a given token ID to another address If the target address is a contract, it must implement {IERC721Receiver-onERC721Received}, which is called upon a safe transfer, and return the magic value `bytes4(keccak256(\"onERC721Received(address,address,uint256,bytes)\"))`; otherwise, the transfer is reverted. Requires the _msgSender() to be the owner, approved, or operator",
        "params": {
          "_data": "bytes data to send along with a safe transfer check",
          "from": "current owner of the token",
          "to": "address to receive the ownership of the given token ID",
          "tokenId": "uint256 ID of the token to be transferred"
        }
      },
      "setApprovalForAll(address,bool)": {
        "details": "Sets or unsets the approval of a given operator An operator is allowed to transfer all tokens of the sender on their behalf.",
        "params": {
          "approved": "representing the status of the approval to be set",
          "to": "operator address to set the approval"
        }
      },
      "supportsInterface(bytes4)": {
        "details": "See {IERC165-supportsInterface}.     * Time complexity O(1), guaranteed to always use less than 30 000 gas."
      },
      "symbol()": {
        "details": "Gets the token symbol.",
        "return": "string representing the token symbol"
      },
      "tokenByIndex(uint256)": {
        "details": "Gets the token ID at a given index of all the tokens in this contract Reverts if the index is greater or equal to the total number of tokens.",
        "params": {
          "index": "uint256 representing the index to be accessed of the tokens list"
        },
        "return": "uint256 token ID at the given index of the tokens list"
      },
      "tokenOfOwnerByIndex(address,uint256)": {
        "details": "Gets the token ID at a given index of the tokens list of the requested owner.",
        "params": {
          "index": "uint256 representing the index to be accessed of the requested tokens list",
          "owner": "address owning the tokens list to be accessed"
        },
        "return": "uint256 token ID at the given index of the tokens list owned by the requested address"
      },
      "tokenURI(uint256)": {
        "details": "Returns the URI for a given token ID. May return an empty string.     * If the token's URI is non-empty and a base URI was set (via {_setBaseURI}), it will be added to the token ID's URI as a prefix.     * Reverts if the token ID does not exist."
      },
      "totalSupply()": {
        "details": "Gets the total amount of tokens stored by the contract.",
        "return": "uint256 representing the total amount of tokens"
      },
      "transferFrom(address,address,uint256)": {
        "details": "Transfers the ownership of a given token ID to another address. Usage of this method is discouraged, use {safeTransferFrom} whenever possible. Requires the msg.sender to be the owner, approved, or operator.",
        "params": {
          "from": "current owner of the token",
          "to": "address to receive the ownership of the given token ID",
          "tokenId": "uint256 ID of the token to be transferred"
        }
      }
    }
  },
  "userdoc": {
    "methods": {}
  }
}